:020000040800F2
:10000000A806002079020008BB100008990F00081C
:10001000B91000087F03000841110008000000002B
:10002000000000000000000000000000BF100008F9
:100030008103000800000000BD100008C110000886
:10004000930200089302000893020008930200083C
:10005000930200089302000893020008930200082C
:10006000930200089302000893020008930200081C
:10007000930200089302000893020008930200080C
:100080009302000800000000930200089302000899
:1000900093020008930200089302000883030008FB
:1000A00093020008930200089302000893020008DC
:1000B00093020008930200089302000893020008CC
:1000C00093020008930200089302000893020008BC
:1000D00093020008930200089302000893020008AC
:1000E000930200089302000893020008930200089C
:1000F0009302000893020008930200080000000029
:10010000000000009D0F000800000000930200089E
:100110009302000800000000930200089302000808
:10012000930200089302000893020008930200085B
:100130009302000800000000000000009302000885
:100140009302000893020008000000000000000075
:10015000000000000000000000000000000000009F
:1001600000000000000000000000000093020008F2
:1001700093020008000000000000000000000000E2
:1001800000000000930200080000000000000000D2
:10019000000000000000000000000000000000005F
:1001A0000000000000000000930200089302000815
:1001B0009302000893020008930200080000000068
:1001C0000000000093020008000000000000000092
:1001D000930200089302000800F002F800F03CF8D7
:1001E0000AA090E8000C82448344AAF10107DA4592
:1001F00001D100F031F8AFF2090EBAE80F0013F0A8
:10020000010F18BFFB1A43F001031847A00F0000AD
:10021000C00F0000103A24BF78C878C1FAD852073E
:1002200024BF30C830C144BF04680C607047000070
:100230000023002400250026103A28BF78C1FBD8EF
:10024000520728BF30C148BF0B6070471FB500F090
:100250009FFF1FBD10B510BD00F058F81146FFF705
:10026000F5FF00F087FF00F076F803B4FFF7F2FF28
:1002700003BC00F07DF800000948804709480047AA
:10028000FEE7FEE7FEE7FEE7FEE7FEE7FEE7FEE746
:10029000FEE7FEE704480549054A064B70470000A3
:1002A00031110008D9010008A8000020A80600208C
:1002B000A8020020A80200204FF0000200B513465B
:1002C00094469646203922BFA0E80C50A0E80C5076
:1002D000B1F12001BFF4F7AF090728BFA0E80C5027
:1002E00048BF0CC05DF804EB890028BF40F8042B20
:1002F00008BF704748BF20F8022B11F0804F18BF8D
:1003000000F8012B7047704770477047754600F042
:100310002BF8AE4605006946534620F00700854697
:1003200018B020B5FFF7B6FFBDE820404FF000063B
:100330004FF000074FF000084FF0000B21F00701CD
:10034000AC46ACE8C009ACE8C009ACE8C009ACE810
:10035000C0098D46704710B50446AFF300802046B3
:10036000BDE81040FFF781BF0048704748000020FB
:1003700001491820ABBEFEE7260002007047FEE7E9
:10038000704710B54FF4807000F024F8BDE81040BD
:100390004FF4007000F01EB870B5044600F058F934
:1003A0000546601C02D004484068044400F050F93F
:1003B000401BA042FAD370BD00000020B0F5007FC2
:1003C00004D14FF48071024800F034B97047000046
:1003D00000040048044910B50A68024202D00860CF
:1003E000FFF7ECFF10BD0000140401402DE9F04FB1
:1003F000DFF82092002301260324A9F1040B85B025
:100400000F2709F1040AABF1040EFAE006FA03F52E
:100410002A407CD091F804C00CF0030CBCF1010F11
:1004200002D0BCF1020F26D1D0F808C0CDF800C030
:100430004FEA430C04FA0CF8CDF810C0DDF800C008
:100440002CEA080CCDF800C0D1F80C80DDF810C003
:1004500008FA0CF8DDF800C048EA0C08C0F808807B
:10046000D0F804C02CEA050C0D79C5F300159D40A9
:1004700045EA0C0545600D79ED43AD070ED0C56822
:100480004FEA430804FA08FC25EA0C05D1F808C035
:100490000CFA08FC4CEA050CC0F80CC00D7905F00C
:1004A0000305022D16D1DD0800EB850CCDF808C040
:1004B000DCF820805D074FEAD56C07FA0CF528EAD6
:1004C00005080D6905FA0CF5DDF808C045EA0805D0
:1004D000CCF8205005684FEA430CCDF808C004FA68
:1004E0000CFC25EA0C0591F804C00CF00308DDF8BB
:1004F00008C008FA0CF848EA0508C0F800804D6802
:1005000015F4403F7CD0444DD5F860C000E077E062
:100510004CF0010CC5F860C02D6E23F0030C05F003
:10052000010500953D4D65440295AD684FEA837C19
:100530004FEA1C7807FA08FC25EA0C05B0F1904F49
:1005400006D0DFF8DCC0604505D14FF0010C20E09B
:100550004FF0000C1DE0DFF8CCC0604502D14FF039
:10056000020C16E0DFF8C0C0604502D14FF0030C6A
:100570000FE0DFF8B8C0604502D14FF0040C08E08E
:10058000DFF8ACC0604502D14FF0050C01E04FF040
:10059000060C0CFA08FC4CEA050C029DC5F808C0D4
:1005A000D9F80050CC46D1F8048095435FEAC828BA
:1005B00000D51543CCF80050DAF80050D446D1F8F5
:1005C000048095435FEA882800D51543CCF8005095
:1005D000DBF80050DC46D1F8048095435FEA8838A8
:1005E00000D51543CCF80050DEF80050F446D1F8A1
:1005F000048095435FEAC83800D51543CCF8005015
:100600005B1C0A6832FA03F57FF400AF05B0BDE861
:10061000F08F00000804014000100240000001407B
:100620000004004800080048000C00480010004882
:1006300000140048426921EA02030A4043EA0241E9
:10064000816170470AB18161704781627047000023
:10065000014880687047000000000020024881685F
:1006600042681144816070470000002010B50024EA
:10067000032000F0DFF8002000F008F808B10124A2
:1006800001E000F091F8204610BD000070B50E4E5C
:1006900005460024706898B14FF47A71B1FBF0F010
:1006A0000A490968B1FBF0F000F062FC40B9102D76
:1006B00006D200222946501E00F09CF8356000E06A
:1006C0000124204670BD0000000000200C00002026
:1006D00070477047704770477047704710B50446C1
:1006E00000680168C943C90708D18168C943C907BF
:1006F00004D1012141602046FFF7ECFF206801682A
:10070000C943890708D48168C943890704D40221F1
:1007100041602046FFF7DCFF20680168C9434907B4
:1007200008D48168C943490704D4042141602046A4
:1007300000F039F820680168C943090708D48168C6
:10074000C943090704D4082141602046FFF7C3FFCD
:1007500020680168C943C90608D48168C943C9062D
:1007600004D4102141602046FFF7B3FF20680168E0
:10077000C943890608D48168C943890604D4202165
:1007800041602046FFF7A9FF20680168C943490678
:1007900008D48168C943490604D4402141602046F9
:1007A000FFF79AFF10BD70470A4882B0016E41F012
:1007B00001010166016E01F001010091816D41F0BE
:1007C00080518165806D00F08050009002B000F093
:1007D000A1B8000000100240002809DB00F01F0251
:1007E000012191404009800000F1E020C0F8001193
:1007F00070470000F0B40E4B1B680C46C3F3022395
:10080000C3F10705042D00D90425191D072901D2BC
:10081000002300E0DB1E012606FA05F1491E2140F7
:1008200099409E40761E16403143F0BC00F089BCD2
:100830000CED00E0064900F0070208684FF6FF03E0
:10084000184040EA0220034A104308607047000045
:100850000CED00E00000FA052B492C4B0A68322110
:100860004A432B4940B1B0F5007F086829D020F4F5
:10087000C06040F480602CE00868C0F3412002288A
:1008800004D051F8800F20F4807022E0D1F880006D
:1008900020F48070C1F88000086820F4C06040F443
:1008A00000700860B2FBF3F0401C00E0401E4A6993
:1008B000520501D50028F9D1486940050AD5032021
:1008C0007047C0F34120022806D051F8800F40F451
:1008D0008070086000207047D1F8800040F480707C
:1008E000C1F88000086820F4C06040F4007008601F
:1008F000B2FBF3F0401C00E0401E4A695205DBD514
:100900000028F9D1D8E700000C00002040420F0079
:10091000007000400248816841F480418160704766
:10092000007000402DE9F0470E4605004FF000072B
:1009300025D0DFF8AC81D8F8000000F00F00B042FD
:100940000CD2D8F8001021F00F013143C8F8001084
:10095000D8F8000000F00F00B04210D12968614CB7
:10096000C80741F2883A5AD06868DFF87C910328BA
:1009700008D0022820682DD0400500282CDB01205B
:10098000BDE8F08720688001F9D5E06800F0030237
:10099000E068C0F30310401C032A19D0534A00BF7B
:1009A000B2FBF0F0E268C2F306225043E268C2F301
:1009B0004162521C5200B0FBF2F0484517D9A068C2
:1009C00010F0F00F0CD0880711D5A86840B10EE0E8
:1009D000474AE5E78003D0E700F092F8484506D99A
:1009E000A06820F0F00040F08000A0608027A068A0
:1009F000696820F003000843A060FFF729FE8146E4
:100A000006E000BFFFF724FEA0EB090151453AD8EC
:100A1000A068696800F00C00B0EB810FF2D1286883
:100A2000810714D5400703D5A06840F4E060A060BA
:100A30002878000705D5A06820F4605040F4E060F5
:100A4000A060A068A96820F0F000084304E0802FAF
:100A500003D1A06820F0F000A060D8F80010404654
:100A600001F00F01B14216D9016821F00F013143A5
:100A70000160FFF7EDFD074607E000BFFFF7E8FD67
:100A8000C11B514501D903207AE7D8F8000000F0D6
:100A90000F00B042F2D12878400705D5A068E96878
:100AA00020F4E0600843A0602878000706D5A0681D
:100AB000296920F4605040EAC100A06000F020F8ED
:100AC000A1680C4AC1F30311515C01F01F01C84039
:100AD0000949086009480068BDE8F047FFF7D6BD3E
:100AE000002002400010024000B4C4040024F400BE
:100AF00000127A009A1100080C000020000000206B
:100B0000184910B58868C0F381021748012A0BD034
:100B10008A684310C2F38102022A06D08A68C2F3AF
:100B20008102032A03D0002010BD184610BDCA68F8
:100B300002F00304CA68C2F30312521C032C02D051
:100B4000B0FBF2F001E0B3FBF2F0CA68C968C2F38F
:100B500006225043C1F34161491C4900B0FBF1F04A
:100B600010BD0000001002400024F4002DE9F843FD
:100B700004007AD02078F84DC00747D0A868E9680B
:100B800000F00C0001F003010C2802D0082817D057
:100B900001E0032914D06068B0F5803F17D0B0F5AC
:100BA000A02F286817D020F480302860286820F40F
:100BB000802028606068E0B1FFF74AFD064614E037
:100BC0002868800322D560680028D2D01EE02868FB
:100BD00040F48030EDE740F480202860F7E700BF64
:100BE000FFF736FD801B642870D828688003F7D58E
:100BF0000CE0FFF72DFD064605E000BFFFF728FDDE
:100C0000801B6428F0D828688003F7D420788007F8
:100C10004CD5A868E96800F00C0001F003010C282D
:100C200002D004280DD001E002290AD0E068002893
:100C300028682BD040F480702860FFF709FD064635
:100C400019E02868400502D5E068002891D068685E
:100C5000217C20F0FE4040EA01606860BF480068E7
:100C6000FFF714FD002800D120E072E1FFF7F0FC4F
:100C7000801B0228B8D828684005F7D56868217C11
:100C800020F0FE4040EA016068600FE020F48070D0
:100C90002860FFF7DDFC064605E000BFFFF7D8FC43
:100CA000801B0228A0D828684005F7D420780007C8
:100CB00029D560690028D5F8940013D040F00100D0
:100CC000C5F89400FFF7C4FC064606E090E000BFBC
:100CD000FFF7BEFC801B022886D8D5F89400800759
:100CE000F6D510E020F00100C5F89400FFF7B0FC45
:100CF000064604E0FFF7ACFC801B022878D8D5F844
:100D000094008007F6D42078400761D5A86D0026AE
:100D1000C00008D4A86D40F08050A865A86D0126D9
:100D200000F0805000908E480168C90511D4016818
:100D3000804641F480710160FFF78AFC074604E0B9
:100D4000FFF786FCC01B022852D8D8F80000C00567
:100D5000F6D5A068012815D00528D5F8900016D042
:100D600020F00100C5F89000D5F8900020F00400B4
:100D7000C5F89000A06841F28838B8B1FFF768FC68
:100D800007460EE0D5F8900040F00100F0E740F093
:100D90000400C5F89000F5E7FFF75AFCC11B414578
:100DA00026D8D5F890008007F6D50CE0FFF750FC68
:100DB000074604E0FFF74CFCC11B414518D8D5F8A5
:100DC00090008007F6D41EB1A86D20F08050A86571
:100DD0002078800629D5A0690028D5F8980013D07E
:100DE00040F00100C5F89800FFF732FC064606E027
:100DF00075E000BFFFF72CFC801B02286FD8D5F8E8
:100E000098008007F6D510E020F00100C5F89800A2
:100E1000FFF71EFC064604E0FFF71AFC801B0228C1
:100E20005DD8D5F898008007F6D4E069F0B3A968DA
:100E3000C1F3810103295DD00228286820F0807069
:100E4000286003D0FFF704FC04464BE0FFF700FCEA
:100E5000064604E0FFF7FCFB801B02283FD8286809
:100E60008001F7D4F4E908016FF00F0202EB0111E1
:100E70000843218A5204490802EB4151A26841EA21
:100E800002210843217D4FF07E42490802EB416177
:100E90000843217B40EAC160E968324A11400843B7
:100EA000E860286840F08070286000E05EE0E86854
:100EB00040F08070E860FFF7CBFB044605E000BF20
:100EC000FFF7C6FB001B022809D828688001F7D568
:100ED0004CE000BFFFF7BCFB001B022802D9032037
:100EE000BDE8F88328688001F4D4E8681E4908400A
:100EF000E8603BE00128F3D0E868226A00F00301D3
:100F0000914226D1616A00F0F00209011039914244
:100F10001FD1A26A00F4FE41B1EB022F19D194F85F
:100F20002C2000F07841B1EBC26F12D1218E00F479
:100F3000C00249084905A1F50011914209D194F870
:100F4000341000F0C06049084906A1F100718142E7
:100F50000CD00120C4E70000001002400000002077
:100F6000007000400C809F01FCFFEEFE0020B7E700
:100F700010B5401EB0F1807F01D3012010BD4FF0AD
:100F8000E02460610F21601700F0DBF80020A06111
:100F900007202061002010BDFEE700000148FFF798
:100FA0009DBB0000100000202DE9F04786B0142101
:100FB0006846FFF781F93C48C16C41F02001C164EB
:100FC000C16C01F020010591C16C41F04001C16488
:100FD000C16C01F040010591C16C41F00101C16497
:100FE000C16C01F001010591C16C41F00201C164C5
:100FF000C06C4FF4806700F002004FF090490590FC
:10100000002239464846FFF71DFBDFF8A0A04FF449
:10101000A078002241465046FFF714FB0325002428
:101020000095CDE9015469462148FFF7DFF90097A3
:10103000CDE9015469461F48FFF7D8F93020CDE9C2
:101040000005694602944846FFF7D0F9012600964C
:10105000CDE9015469465046FFF7C8F928020090CF
:101060004FF44410CDE9010469464846FFF7BEF944
:101070000097CDE90164694648460394FFF7B6F945
:10108000CDF80080CDE90164694650460394FFF72E
:10109000ADF9002211461720FFF7ACFB1720FFF730
:1010A0009BFB06B0BDE8F08700100240000400483A
:1010B0000014004800180048FEE7FEE7704770473C
:1010C000FFF7CCBA00B593B038216846FFF7F4F8C3
:1010D00014210EA8FFF7F0F80020FFF7BDFB022057
:1010E000C1010391402104910421CDE90801009040
:1010F0005521CDE90A1007900C900D906846FFF736
:1011000035FD08B172B6FEE70F200E9003200F9058
:10111000002010904FF4A0601190129004210EA8AE
:10112000FFF700FC002801D072B6FEE713B000BD47
:101130000248016841F470010160704788ED00E0E9
:10114000FEE70907090E002804DB00F1E02080F823
:101150000014704700F00F0000F1E02080F8141D2B
:10116000704710B5FFF782FAFFF7ACFFBDE81040FB
:10117000FFF71ABFFFF7F5FF012211020348FFF73F
:1011800061FA0A20FFF708F9FBE7000000040048B5
:101190004FF04070E1EE100A7047000000000000C0
:1011A000000001020304060708090000CC11000832
:1011B000000000201000000014020008DC110008EC
:1011C0001000002098060000300200081000000007
:0C11D00001000000000000000024F400FA
:04000005080001D915
:00000001FF
