:0400000080313028F3
:10000800803120007F08FA00911E2D28230019084E
:10001800F9007908FC007C08031916280D307C06C5
:10002800031D282803307B0203181F280130F9001C
:100038007908FB072128FB01FB0AF401F40A7B0875
:1000480082313D2280312B287C088231AE2220006B
:1000580091127A08FF00090080313228FB01FC0167
:1000680034308400003085001030833100232000B4
:1000780080313E288231E522803129302000B300CA
:100088009630B200A630B100B10B4828B20B482810
:10009800B30B48288231C22280318031A2208031BE
:1000A80003302000B3000830B2007830B100B10B43
:1000B8005B28B20B5B28B30B5B288231842280312A
:1000C80003302000B3000830B2007830B100B10B23
:1000D8006B28B20B6B28B30B6B2802302000B100E1
:1000E8003108FB001130A9008230AA00AB01AB0A2D
:1000F800AC01AC0A8031FD20803100302000A9001D
:100108008230AA000230B1003108AB00AC01AC0A61
:100118008031FD20803120008E12323023009A0079
:1001280003302000B3000830B2007830B100B10BC2
:100138009B28B20B9B28B30B9B288F280330823156
:10014800D522803121000C1134302000A500F13077
:10015800A400A40BAD28A50BAD28003220000E107A
:100168000C1129308231F12280311D308231F12287
:10017800803150308231F12280316C308231F1226D
:1001880080317C308231F122803103308231F1229A
:1001980080310F308231F122803101308231F122F9
:1001A80080310B302000A5006230A400A40BDA28AF
:1001B800A50BDA28000006308231F1228031343074
:1001C8002000A500F130A400A40BE828A50BE8281E
:1001D800003220000C150E143430A500F130A400B4
:1001E800A40BF428A50BF42800325F3082316F226B
:1001F80008002000B0012C08AD002D08A4002B0831
:1002080082311F22803120002A08AE002908AD0063
:1002180030082D0784002E0803182E0A85001200C6
:100228000319080020002A08AE002908AD0030088C
:100238002D0784002E0803182E0A85000008823135
:100248006F22803101302000AD002D08B00707294A
:1004000047344E3444342D3478342D343534563416
:100410002D34543458342D34523458342D347834E7
:10042000003441346634663469346334683461348A
:100430006734653420344C34433444340034200071
:10044000A7002708A5000330A535FF3E031D242A79
:10045000253524076F3EA6002608A800280882310B
:100460005922823106302000A6003030A500A50BAD
:10047000372AA60B372A00000800F7007708F50096
:100480000330F535FF3E031D412A753574076F3E75
:10049000F6007608F8007808823199228231063019
:1004A000F6003030F500F50B532AF60B532A000006
:1004B00008002000A3000E100C1123088231F12245
:1004C000823106302000A2003030A100A10B662A44
:1004D000A20B662A000020000C150E140800200054
:1004E000A3000E100C1523088231F1228231063050
:1004F0002000A2003030A100A10B7C2AA20B7C2A94
:10050000000020000E14080020000E100C11013015
:100510008231592282310B302000A5006230A400C4
:10052000A40B902AA50B902A000020000C150E1495
:100530000800F30020000E100C1173088231F9221C
:1005400082310630F2003030F100F10BA52AF20BB7
:10055000A52A000020000C150E140800F30020004E
:100560000E100C1573088231F92282310630F20028
:100570003030F100F10BBA2AF20BBA2A0000200049
:100580000E14080021008D168D1323009F111E11DB
:100590001E129C0119309B009E169D17210091167A
:1005A0000B178B1723001D16080021000E100D13CA
:1005B0008E1320000E142400941314131512951694
:1005C0001508F03902389500080023008C018D01D0
:1005D0008E0121008E1220008E16783021009904A1
:1005E00008002000A0002008240091001418080032
:1005F000F62AF00070082400910014180800FD2A63
:0C060000640080010131890B012B0034E3
:020000040001F9
:04000E00A4F9FFDD75
:00000001FF
