:020000040800F2
:100000002808002079020008EB1500086314000896
:10001000E91500087F030008A7170008000000008A
:10002000000000000000000000000000EF150008C4
:100030008103000800000000ED150008F11500081C
:10004000930200089302000893020008930200083C
:10005000930200089302000893020008930200082C
:10006000930200089302000893020008930200081C
:10007000930200089302000893020008930200080C
:100080009302000800000000930200089302000899
:1000900093020008930200089302000883030008FB
:1000A00093020008930200089302000893020008DC
:1000B00071160008930200089302000893020008DA
:1000C00093020008930200089302000893020008BC
:1000D00093020008930200089302000893020008AC
:1000E000930200089302000893020008930200089C
:1000F0009302000893020008930200080000000029
:1001000000000000651400080000000093020008D1
:100110009302000800000000930200089302000808
:10012000930200089302000893020008930200085B
:100130009302000800000000000000009302000885
:100140009302000893020008000000000000000075
:10015000000000000000000000000000000000009F
:1001600000000000000000000000000093020008F2
:1001700093020008000000000000000000000000E2
:1001800000000000930200080000000000000000D2
:10019000000000000000000000000000000000005F
:1001A0000000000000000000930200089302000815
:1001B0009302000893020008930200080000000068
:1001C0000000000093020008000000000000000092
:1001D000930200089302000800F002F800F03CF8D7
:1001E0000AA090E8000C82448344AAF10107DA4592
:1001F00001D100F031F8AFF2090EBAE80F0013F0A8
:10020000010F18BFFB1A43F0010318474016000006
:1002100060160000103A24BF78C878C1FAD8520797
:1002200024BF30C830C144BF04680C607047000070
:100230000023002400250026103A28BF78C1FBD8EF
:10024000520728BF30C148BF0B6070471FB501F08F
:10025000EFFA1FBD10B510BD00F058F81146FFF7BA
:10026000F5FF01F0CDFA00F076F803B4FFF7F2FFE6
:1002700003BC00F07DF800000948804709480047AA
:10028000FEE7FEE7FEE7FEE7FEE7FEE7FEE7FEE746
:10029000FEE7FEE704480549054A064B70470000A3
:1002A00061160008D9010008280200202808002053
:1002B00028040020280400204FF0000200B5134657
:1002C00094469646203922BFA0E80C50A0E80C5076
:1002D000B1F12001BFF4F7AF090728BFA0E80C5027
:1002E00048BF0CC05DF804EB890028BF40F8042B20
:1002F00008BF704748BF20F8022B11F0804F18BF8D
:1003000000F8012B7047704770477047754600F042
:100310002BF8AE4605006946534620F00700854697
:1003200018B020B5FFF7B6FFBDE820404FF000063B
:100330004FF000074FF000084FF0000B21F00701CD
:10034000AC46ACE8C009ACE8C009ACE8C009ACE810
:10035000C0098D46704710B50446AFF300802046B3
:10036000BDE81040FFF781BF00487047C40100207E
:1003700001491820ABBEFEE7260002007047FEE7E9
:10038000704710B54FF4807000F01CF8BDE81040C5
:100390004FF4007000F016B872B6FEE770B5044670
:1003A00000F04EF90546601C02D004484068044441
:1003B00000F046F9401BA042FAD370BD00000020B7
:1003C00070470000044910B50A68024202D0086074
:1003D000FFF7F6FF10BD0000140401402DE9F04FB7
:1003E000DFF82092002301260324A9F1040B85B035
:1003F0000F2709F1040AABF1040EFAE006FA03F53F
:100400002A407CD091F804C00CF0030CBCF1010F21
:1004100002D0BCF1020F26D1D0F808C0CDF800C040
:100420004FEA430C04FA0CF8CDF810C0DDF800C018
:100430002CEA080CCDF800C0D1F80C80DDF810C013
:1004400008FA0CF8DDF800C048EA0C08C0F808808B
:10045000D0F804C02CEA050C0D79C5F300159D40B9
:1004600045EA0C0545600D79ED43AD070ED0C56832
:100470004FEA430804FA08FC25EA0C05D1F808C045
:100480000CFA08FC4CEA050CC0F80CC00D7905F01C
:100490000305022D16D1DD0800EB850CCDF808C050
:1004A000DCF820805D074FEAD56C07FA0CF528EAE6
:1004B00005080D6905FA0CF5DDF808C045EA0805E0
:1004C000CCF8205005684FEA430CCDF808C004FA78
:1004D0000CFC25EA0C0591F804C00CF00308DDF8CB
:1004E00008C008FA0CF848EA0508C0F800804D6812
:1004F00015F4403F7CD0444DD5F860C000E077E073
:100500004CF0010CC5F860C02D6E23F0030C05F013
:10051000010500953D4D65440295AD684FEA837C29
:100520004FEA1C7807FA08FC25EA0C05B0F1904F59
:1005300006D0DFF8DCC0604505D14FF0010C20E0AB
:100540004FF0000C1DE0DFF8CCC0604502D14FF049
:10055000020C16E0DFF8C0C0604502D14FF0030C7A
:100560000FE0DFF8B8C0604502D14FF0040C08E09E
:10057000DFF8ACC0604502D14FF0050C01E04FF050
:10058000060C0CFA08FC4CEA050C029DC5F808C0E4
:10059000D9F80050CC46D1F8048095435FEAC828CA
:1005A00000D51543CCF80050DAF80050D446D1F805
:1005B000048095435FEA882800D51543CCF80050A5
:1005C000DBF80050DC46D1F8048095435FEA8838B8
:1005D00000D51543CCF80050DEF80050F446D1F8B1
:1005E000048095435FEAC83800D51543CCF8005025
:1005F0005B1C0A6832FA03F57FF400AF05B0BDE872
:10060000F08F00000804014000100240000001408B
:100610000004004800080048000C00480010004892
:1006200000140048426921EA02030A4043EA0241F9
:10063000816170470AB18161704781627047000033
:10064000014880687047000000000020024881686F
:1006500042681144816070470000002010B50024FA
:10066000032000F0DFF8002000F008F808B10124B2
:1006700001E000F091F8204610BD000070B50E4E6C
:1006800005460024706898B14FF47A71B1FBF0F020
:100690000A490968B1FBF0F000F062FC40B9102D86
:1006A00006D200222946501E00F09CF8356000E07A
:1006B0000124204670BD0000000000200C00002036
:1006C00070477047704770477047704710B50446D1
:1006D00000680168C943C90708D18168C943C907CF
:1006E00004D1012141602046FFF7ECFF206801683A
:1006F000C943890708D48168C943890704D4022102
:1007000041602046FFF7DCFF20680168C9434907C4
:1007100008D48168C943490704D4042141602046B4
:1007200000F039F820680168C943090708D48168D6
:10073000C943090704D4082141602046FFF7C3FFDD
:1007400020680168C943C90608D48168C943C9063D
:1007500004D4102141602046FFF7B3FF20680168F0
:10076000C943890608D48168C943890604D4202175
:1007700041602046FFF7A9FF20680168C943490688
:1007800008D48168C943490604D440214160204609
:10079000FFF79AFF10BD70470A4882B0016E41F022
:1007A00001010166016E01F001010091816D41F0CE
:1007B00080518165806D00F08050009002B000F0A3
:1007C000A1B8000000100240002809DB00F01F0261
:1007D000012191404009800000F1E020C0F80011A3
:1007E00070470000F0B40E4B1B680C46C3F30223A5
:1007F000C3F10705042D00D90425191D072901D2CD
:10080000002300E0DB1E012606FA05F1491E214007
:1008100099409E40761E16403143F0BC00F0C4BFA4
:100820000CED00E0064900F0070208684FF6FF03F0
:10083000184040EA0220034A104308607047000055
:100840000CED00E00000FA052B492C4B0A68322120
:100850004A432B4940B1B0F5007F086829D020F405
:10086000C06040F480602CE00868C0F3412002289A
:1008700004D051F8800F20F4807022E0D1F880007D
:1008800020F48070C1F88000086820F4C06040F453
:1008900000700860B2FBF3F0401C00E0401E4A69A3
:1008A000520501D50028F9D1486940050AD5032031
:1008B0007047C0F34120022806D051F8800F40F461
:1008C0008070086000207047D1F8800040F480708C
:1008D000C1F88000086820F4C06040F4007008602F
:1008E000B2FBF3F0401C00E0401E4A695205DBD524
:1008F0000028F9D1D8E700000C00002040420F008A
:10090000007000400248816841F480418160704776
:10091000007000402DE9F0470E4605004FF000073B
:1009200025D0DFF8AC81D8F8000000F00F00B0420D
:100930000CD2D8F8001021F00F013143C8F8001094
:10094000D8F8000000F00F00B04210D12968614CC7
:10095000C80741F2883A5AD06868DFF87C910328CA
:1009600008D0022820682DD0400500282CDB01206B
:10097000BDE8F08720688001F9D5E06800F0030247
:10098000E068C0F30310401C032A19D0534A00BF8B
:10099000B2FBF0F0E268C2F306225043E268C2F311
:1009A0004162521C5200B0FBF2F0484517D9A068D2
:1009B00010F0F00F0CD0880711D5A86840B10EE0F8
:1009C000474AE5E78003D0E700F092F8484506D9AA
:1009D000A06820F0F00040F08000A0608027A068B0
:1009E000696820F003000843A060FFF729FE8146F4
:1009F00006E000BFFFF724FEA0EB090151453AD8FD
:100A0000A068696800F00C00B0EB810FF2D1286893
:100A1000810714D5400703D5A06840F4E060A060CA
:100A20002878000705D5A06820F4605040F4E06005
:100A3000A060A068A96820F0F000084304E0802FBF
:100A400003D1A06820F0F000A060D8F80010404664
:100A500001F00F01B14216D9016821F00F013143B5
:100A60000160FFF7EDFD074607E000BFFFF7E8FD77
:100A7000C11B514501D903207AE7D8F8000000F0E6
:100A80000F00B042F2D12878400705D5A068E96888
:100A900020F4E0600843A0602878000706D5A0682D
:100AA000296920F4605040EAC100A06000F020F8FD
:100AB000A1680C4AC1F30311515C01F01F01C84049
:100AC0000949086009480068BDE8F047FFF7D6BD4E
:100AD000002002400010024000B4C4040024F400CE
:100AE00000127A003A1800080C00002000000020D4
:100AF000184910B58868C0F381021748012A0BD045
:100B00008A684310C2F38102022A06D08A68C2F3BF
:100B10008102032A03D0002010BD184610BDCA6808
:100B200002F00304CA68C2F30312521C032C02D061
:100B3000B0FBF2F001E0B3FBF2F0CA68C968C2F39F
:100B400006225043C1F34161491C4900B0FBF1F05A
:100B500010BD0000001002400024F4002DE9F8430D
:100B600004007AD02078F84DC00747D0A868E9681B
:100B700000F00C0001F003010C2802D0082817D067
:100B800001E0032914D06068B0F5803F17D0B0F5BC
:100B9000A02F286817D020F480302860286820F41F
:100BA000802028606068E0B1FFF74AFD064614E047
:100BB0002868800322D560680028D2D01EE028680B
:100BC00040F48030EDE740F480202860F7E700BF74
:100BD000FFF736FD801B642870D828688003F7D59E
:100BE0000CE0FFF72DFD064605E000BFFFF728FDEE
:100BF000801B6428F0D828688003F7D42078800709
:100C00004CD5A868E96800F00C0001F003010C283D
:100C100002D004280DD001E002290AD0E0680028A3
:100C200028682BD040F480702860FFF709FD064645
:100C300019E02868400502D5E068002891D068686E
:100C4000217C20F0FE4040EA01606860BF480068F7
:100C5000FFF714FD002800D120E072E1FFF7F0FC5F
:100C6000801B0228B8D828684005F7D56868217C21
:100C700020F0FE4040EA016068600FE020F48070E0
:100C80002860FFF7DDFC064605E000BFFFF7D8FC53
:100C9000801B0228A0D828684005F7D420780007D8
:100CA00029D560690028D5F8940013D040F00100E0
:100CB000C5F89400FFF7C4FC064606E090E000BFCC
:100CC000FFF7BEFC801B022886D8D5F89400800769
:100CD000F6D510E020F00100C5F89400FFF7B0FC55
:100CE000064604E0FFF7ACFC801B022878D8D5F854
:100CF00094008007F6D42078400761D5A86D0026BF
:100D0000C00008D4A86D40F08050A865A86D0126E9
:100D100000F0805000908E480168C90511D4016828
:100D2000804641F480710160FFF78AFC074604E0C9
:100D3000FFF786FCC01B022852D8D8F80000C00577
:100D4000F6D5A068012815D00528D5F8900016D052
:100D500020F00100C5F89000D5F8900020F00400C4
:100D6000C5F89000A06841F28838B8B1FFF768FC78
:100D700007460EE0D5F8900040F00100F0E740F0A3
:100D80000400C5F89000F5E7FFF75AFCC11B414588
:100D900026D8D5F890008007F6D50CE0FFF750FC78
:100DA000074604E0FFF74CFCC11B414518D8D5F8B5
:100DB00090008007F6D41EB1A86D20F08050A86581
:100DC0002078800629D5A0690028D5F8980013D08E
:100DD00040F00100C5F89800FFF732FC064606E037
:100DE00075E000BFFFF72CFC801B02286FD8D5F8F8
:100DF00098008007F6D510E020F00100C5F89800B3
:100E0000FFF71EFC064604E0FFF71AFC801B0228D1
:100E10005DD8D5F898008007F6D4E069F0B3A968EA
:100E2000C1F3810103295DD00228286820F0807079
:100E3000286003D0FFF704FC04464BE0FFF700FCFA
:100E4000064604E0FFF7FCFB801B02283FD8286819
:100E50008001F7D4F4E908016FF00F0202EB0111F1
:100E60000843218A5204490802EB4151A26841EA31
:100E700002210843217D4FF07E42490802EB416187
:100E80000843217B40EAC160E968324A11400843C7
:100E9000E860286840F08070286000E05EE0E86864
:100EA00040F08070E860FFF7CBFB044605E000BF30
:100EB000FFF7C6FB001B022809D828688001F7D578
:100EC0004CE000BFFFF7BCFB001B022802D9032047
:100ED000BDE8F88328688001F4D4E8681E4908401A
:100EE000E8603BE00128F3D0E868226A00F00301E3
:100EF000914226D1616A00F0F00209011039914255
:100F00001FD1A26A00F4FE41B1EB022F19D194F86F
:100F10002C2000F07841B1EBC26F12D1218E00F489
:100F2000C00249084905A1F50011914209D194F880
:100F3000341000F0C06049084906A1F100718142F7
:100F40000CD00120C4E70000001002400000002087
:100F5000007000400C809F01FCFFEEFE0020B7E710
:100F600010B5401EB0F1807F01D3012010BD4FF0BD
:100F7000E02460610F21601700F016FC0020A061E2
:100F800007202061002010BD7047704770477047F0
:100F900070477047F0B590F83C20012A3AD00125FF
:100FA00080F83C50022280F83D2003685A689C6813
:100FB000194E1A4FB34201D0BB4204D122F4700C37
:100FC0004A6842EA0C02DFF858C002EA0C02D1F883
:100FD00000C04CEA020CC3F804C00268B2420DD053
:100FE000B2F1804F0AD00F4B9A4207D00E4B9A4273
:100FF00004D0BA4202D00D4B9A4204D1896824F041
:1010000080031943916080F83D50002180F83C1026
:101010000846F0BD0220F0BD002C01400034014024
:101020008FFFFFFD00040040000800400040014029
:10103000704710B5040003D094F83D0010B107E0EC
:10104000012010BD002084F83C00204600F022F86A
:10105000022084F83D00211D206800F00FFB0120D4
:1010600084F8480084F83E0084F83F0084F840008B
:1010700084F8410084F8420084F8430084F8440076
:1010800084F8450084F8460084F8470084F83D0061
:10109000002010BD08B501682148B1F1804F0AD089
:1010A000204A914219D1816D41F002018165806D24
:1010B00000F002001BE0816D41F001018165806D4F
:1010C000002200F00100009011461C20FFF78AFB6F
:1010D000BDE808401C20FFF777BB134A914208D1B6
:1010E000816D41F004018165806D00F00400009085
:1010F00008BD0E4A914207D1016E41F400310166EC
:10110000006E00F40030F2E7094A9142F0D1016E1E
:1011100041F480210166006E00F48020E7E70000C2
:10112000001002400004004000080040004401405C
:101130000048014090F83D10012901D0012070477E
:10114000022180F83D100168CA6842F00102CA60BD
:101150000068104988420ED0B0F1804F0BD00E4984
:10116000884208D00D49884205D00D49884202D0F6
:101170000C49884207D181680B4A1140062906D0E4
:10118000B1F5803F03D0016841F00101016000200A
:1011900070470000002C014000040040000800409F
:1011A00000340140004001400700010070B50446D2
:1011B00090F83C000025012814D0012684F83C60FA
:1011C000022084F83D0022689068364B184020F4D5
:1011D0007F409060086870282ED010DC10F00F0F50
:1011E00003D021E04FF0020070BD4FEA2012072A21
:1011F0001AD2DFE802F0525252524A3840002A4BCB
:10120000C21A984249D009DCB0F5805F0DD0B0F524
:10121000005F1CD0B0F1101F06D13EE0102A3CD078
:10122000202A3AD0502A38D0012584F83D60002089
:1012300084F83C00284670BDCB68D1E901212068C4
:1012400000F07AFA2068816841F0770109E0CB6804
:10125000D1E90121206800F06FFA2068816841F42B
:1012600080418160E1E7CA684968206800F078FA47
:101270005021206806E0CA684968206800F081FAB9
:101280006021206800F062FACFE7CA6849682068E8
:1012900000F066FA40212068F4E722680146104613
:1012A000F0E7000088FFCEFF2000100070472DE916
:1012B000F04104460068C66805694FF00007A907B9
:1012C00013D5B10711D5F91E0161012020772068DF
:1012D00080698007204602D0FFF7E8FF04E000F0B5
:1012E000B7F8204600F0B5F82777680716D57007DD
:1012F00014D521686FF0040008610220207720686F
:10130000806910F4407F204602D0FFF7CFFF04E051
:1013100000F09EF8204600F09CF82777280715D5A6
:10132000300713D521686FF008000861042020778A
:101330002068C0698007204602D0FFF7B7FF04E0AD
:1013400000F086F8204600F084F82777E80616D5E6
:10135000F00614D521686FF010000861082020778E
:101360002068C06910F4407F204602D0FFF79EFF3E
:1013700004E000F06DF8204600F06BF82777E807EE
:1013800008D0F00706D021686FF001000861204600
:1013900000F060F8280601D4A80408D5300606D568
:1013A00021686FF4025008612046FFF7EEFDE80562
:1013B00008D5300606D521686FF480700861204694
:1013C000FFF7E2FD680608D5700606D521686FF0C4
:1013D00040000861204600F043F8A80608D5B00692
:1013E00006D521686FF0200008612046FFF7CEFD8A
:1013F000E80208D5F00206D521686FF48010086174
:101400002046FFF7C5FDA80208D5B00206D5216821
:101410006FF4001008612046FFF7B9FD680208D597
:10142000700206D521686FF4800008612046FFF73E
:10143000B0FD28020AD5300208D521686FF40000FB
:1014400008612046BDE8F041FFF7F2BDBDE8F0813C
:101450007047704740210148FFF7E4B80004004896
:101460007047FEE70148FFF731B900001000002087
:101470002DE9F04786B014216846FEF71DFF3C4871
:10148000C16C41F02001C164C16C01F020010591E3
:10149000C16C41F04001C164C16C01F04001059193
:1014A000C16C41F00101C164C16C01F00101059101
:1014B000C16C41F00201C164C06C4FF4806700F060
:1014C00002004FF090490590002239464846FFF748
:1014D000B1F8DFF8A0A04FF4A078002241465046B2
:1014E000FFF7A8F8032500240095CDE901546946CB
:1014F0002148FEF773FF0097CDE9015469461F4864
:10150000FEF76CFF3020CDE900056946029448469D
:10151000FEF764FF01260096CDE901546946504666
:10152000FEF75CFF280200904FF44410CDE901045F
:1015300069464846FEF752FF0097CDE901646946C7
:1015400048460394FEF74AFFCDF80080CDE90164D8
:10155000694650460394FEF741FF002211461720CA
:10156000FFF740F91720FFF72FF906B0BDE8F08725
:101570000010024000040048001400480018004811
:1015800010B588B000241748009401940294039485
:10159000049405944FF08041069401600A21C0E94B
:1015A000011441F29A01C0E903148461FFF741FD7F
:1015B00008B1FEF7F1FE4FF48050009069460948EB
:1015C000FFF7F4FD08B1FEF7E7FE049404A905480F
:1015D0000694FFF7DFFC002801D0FEF7DDFE08B01F
:1015E00010BD000048000020FEE7FEE7704770478E
:1015F000FFF72CB800B593B038216846FEF75CFEC3
:1016000014210EA8FEF758FE0020FFF71DF9022056
:10161000C1010391402104910421CDE9080100900A
:101620005521CDE90A1007900C900D906846FFF700
:1016300095FA08B172B6FEE70F200E9003200F90C6
:10164000002010904FF4A0601190129004210EA879
:10165000FFF760F9002801D072B6FEE713B000BDB5
:101660000248016841F470010160704788ED00E0B4
:101670000148FFF71CBE0000480000202DE9F043A0
:101680000268264B264D274E274C4FF08049984242
:1016900007D0484505D0A84203D0B04201D0A042AF
:1016A00003D122F070074A683A43204FDFF880C028
:1016B000DFF8808098420DD048450BD0A84209D071
:1016C000B04207D0A04205D0B84203D0604501D057
:1016D000404503D122F44075CA682A434D6922F07F
:1016E00080022A4302608A68C2620A688262984263
:1016F00007D0A04205D0B84203D0604501D0404594
:1017000001D109690163012141610169C90703D060
:10171000016921F001010161BDE8F083002C014065
:101720000004004000080040003401400040014037
:10173000004401400048014010B5846842EA032299
:1017400024F47F440A432243826010BD8268034B25
:101750001A400A4342F00701816070478FFFCFFFB4
:1017600010B5036A046A24F001040462846924F059
:10177000F00444EA021423F00A020A43846102627C
:1017800010BD10B5036A046A24F010040462846971
:1017900023F0A00324F4704444EA023243EA011126
:1017A0008261016210BDFEE70907090E002804DB13
:1017B00000F1E02080F80014704700F00F0000F105
:1017C000E02080F8141D70470249C8600846FFF702
:1017D00030BC000048000020024948600846FFF77E
:1017E00028BC00004800002010B5FEF737FFFFF7C7
:1017F00001FFFFF73DFEBDE81040FFF7C1BE00004E
:10180000FFF7F2FF012211020748FEF713FF012044
:10181000FFF7E2FF0120FFF7D7FF0448FFF78AFC3C
:101820000A20FEF7BBFDFBE700040048480000204B
:101830004FF04070E1EE100A704700000000000019
:101840000000010203040607080900006C180008E4
:101850000000002010000000140200087C1800089E
:1018600010000020180800003002000810000000DE
:0C18700001000000000000000024F40053
:04000005080001D915
:00000001FF
